{
  "_format": "hh-sol-artifact-1",
  "contractName": "SPLTokenFactory",
  "sourceName": "contracts/SPLTokenFactory.sol",
  "abi": [
    {
      "inputs": [],
      "stateMutability": "nonpayable",
      "type": "constructor"
    },
    {
      "inputs": [
        {
          "internalType": "address",
          "name": "owner",
          "type": "address"
        }
      ],
      "name": "OwnableInvalidOwner",
      "type": "error"
    },
    {
      "inputs": [
        {
          "internalType": "address",
          "name": "account",
          "type": "address"
        }
      ],
      "name": "OwnableUnauthorizedAccount",
      "type": "error"
    },
    {
      "anonymous": false,
      "inputs": [
        {
          "indexed": true,
          "internalType": "address",
          "name": "previousOwner",
          "type": "address"
        },
        {
          "indexed": true,
          "internalType": "address",
          "name": "newOwner",
          "type": "address"
        }
      ],
      "name": "OwnershipTransferred",
      "type": "event"
    },
    {
      "anonymous": false,
      "inputs": [
        {
          "indexed": true,
          "internalType": "uint256",
          "name": "tokenId",
          "type": "uint256"
        },
        {
          "indexed": false,
          "internalType": "address",
          "name": "tokenAddress",
          "type": "address"
        },
        {
          "indexed": false,
          "internalType": "string",
          "name": "contentType",
          "type": "string"
        },
        {
          "indexed": false,
          "internalType": "string",
          "name": "contentHash",
          "type": "string"
        },
        {
          "indexed": false,
          "internalType": "address",
          "name": "creator",
          "type": "address"
        }
      ],
      "name": "TokenCreated",
      "type": "event"
    },
    {
      "inputs": [
        {
          "internalType": "string",
          "name": "",
          "type": "string"
        }
      ],
      "name": "contentToToken",
      "outputs": [
        {
          "internalType": "uint256",
          "name": "",
          "type": "uint256"
        }
      ],
      "stateMutability": "view",
      "type": "function"
    },
    {
      "inputs": [
        {
          "internalType": "string",
          "name": "name",
          "type": "string"
        },
        {
          "internalType": "string",
          "name": "symbol",
          "type": "string"
        },
        {
          "internalType": "uint256",
          "name": "initialSupply",
          "type": "uint256"
        },
        {
          "internalType": "string",
          "name": "contentType",
          "type": "string"
        },
        {
          "internalType": "string",
          "name": "contentHash",
          "type": "string"
        }
      ],
      "name": "createToken",
      "outputs": [
        {
          "internalType": "address",
          "name": "",
          "type": "address"
        }
      ],
      "stateMutability": "payable",
      "type": "function"
    },
    {
      "inputs": [],
      "name": "feeReceiver",
      "outputs": [
        {
          "internalType": "address",
          "name": "",
          "type": "address"
        }
      ],
      "stateMutability": "view",
      "type": "function"
    },
    {
      "inputs": [],
      "name": "getTokenCount",
      "outputs": [
        {
          "internalType": "uint256",
          "name": "",
          "type": "uint256"
        }
      ],
      "stateMutability": "view",
      "type": "function"
    },
    {
      "inputs": [],
      "name": "mintFee",
      "outputs": [
        {
          "internalType": "uint256",
          "name": "",
          "type": "uint256"
        }
      ],
      "stateMutability": "view",
      "type": "function"
    },
    {
      "inputs": [],
      "name": "owner",
      "outputs": [
        {
          "internalType": "address",
          "name": "",
          "type": "address"
        }
      ],
      "stateMutability": "view",
      "type": "function"
    },
    {
      "inputs": [],
      "name": "renounceOwnership",
      "outputs": [],
      "stateMutability": "nonpayable",
      "type": "function"
    },
    {
      "inputs": [
        {
          "internalType": "address",
          "name": "newReceiver",
          "type": "address"
        }
      ],
      "name": "setFeeReceiver",
      "outputs": [],
      "stateMutability": "nonpayable",
      "type": "function"
    },
    {
      "inputs": [
        {
          "internalType": "uint256",
          "name": "newFee",
          "type": "uint256"
        }
      ],
      "name": "setMintFee",
      "outputs": [],
      "stateMutability": "nonpayable",
      "type": "function"
    },
    {
      "inputs": [
        {
          "internalType": "uint256",
          "name": "",
          "type": "uint256"
        }
      ],
      "name": "tokens",
      "outputs": [
        {
          "internalType": "address",
          "name": "",
          "type": "address"
        }
      ],
      "stateMutability": "view",
      "type": "function"
    },
    {
      "inputs": [
        {
          "internalType": "address",
          "name": "newOwner",
          "type": "address"
        }
      ],
      "name": "transferOwnership",
      "outputs": [],
      "stateMutability": "nonpayable",
      "type": "function"
    }
  ],
  "bytecode": "0x608080604052346093573315607d5760008054336001600160a01b0319821681178355916001600160a01b03909116907f8be0079c531659141344cd1fd0a4f28419497f9722a3daafe3b4186f6b6457e09080a36706f05b59d3b20000600255600380546001600160a01b0319163317905561195290816100998239f35b631e4fbdf760e01b600052600060045260246000fd5b600080fdfe608080604052600436101561001357600080fd5b60003560e01c90816313966db5146105db575080634f64b2be146105a7578063715018a61461054e57806378a89567146105305780638da5cb5b14610507578063a9816780146104aa578063b1821e77146101bf578063b3f0067414610196578063eddd0d9c14610175578063efdcd9741461012a5763f2fde38b1461009857600080fd5b34610125576020366003190112610125576004356001600160a01b03811690819003610125576100c66106a7565b801561010f57600080546001600160a01b03198116831782556001600160a01b0316907f8be0079c531659141344cd1fd0a4f28419497f9722a3daafe3b4186f6b6457e09080a3005b631e4fbdf760e01b600052600060045260246000fd5b600080fd5b34610125576020366003190112610125576004356001600160a01b03811690819003610125576101586106a7565b6bffffffffffffffffffffffff60a01b6003541617600355600080f35b346101255760203660031901126101255761018e6106a7565b600435600255005b34610125576000366003190112610125576003546040516001600160a01b039091168152602090f35b60a03660031901126101255760043567ffffffffffffffff8111610125576101eb9036906004016105f6565b60243567ffffffffffffffff81116101255761020b9036906004016105f6565b9060643567ffffffffffffffff81116101255761022c9036906004016105f6565b9160843567ffffffffffffffff81116101255761024d9036906004016105f6565b90600254341061047257604051928251936020818186019661027081838a61065f565b810160058152030190205461042d57600080808060018060a01b036003541681903415610423575b3491f115610401576040519161124c908184019184831067ffffffffffffffff84111761040d576102f0610314926102e28796610306946106d1893960c0875260c0870190610682565b908582036020870152610682565b6044356040850152838103606085015288610682565b828103608084015285610682565b9060a03391015203906000f080156104015760015491600183018093116103eb576020946103da6103cc92856103a8897fc83e6c280e85e282950151ea42a41aedbe390e21309cd4fee65355453b804320978360015560018060a01b031699836000526004825260406000208b6bffffffffffffffffffffffff60a01b82541617905560405180938192875192839161065f565b810160058152030190205560405193849388855260808a8601526080850190610682565b908382036040850152610682565b3360608301520390a2604051908152f35b634e487b7160e01b600052601160045260246000fd5b6040513d6000823e3d90fd5b634e487b7160e01b600052604160045260246000fd5b6108fc9150610298565b60405162461bcd60e51b815260206004820152601960248201527f436f6e74656e7420616c726561647920746f6b656e697a6564000000000000006044820152606490fd5b60405162461bcd60e51b815260206004820152601060248201526f496e73756666696369656e742066656560801b6044820152606490fd5b346101255760203660031901126101255760043567ffffffffffffffff8111610125576104f460206104e1819336906004016105f6565b816040519382858094519384920161065f565b8101600581520301902054604051908152f35b34610125576000366003190112610125576000546040516001600160a01b039091168152602090f35b34610125576000366003190112610125576020600154604051908152f35b34610125576000366003190112610125576105676106a7565b600080546001600160a01b0319811682556001600160a01b03167f8be0079c531659141344cd1fd0a4f28419497f9722a3daafe3b4186f6b6457e08280a3005b34610125576020366003190112610125576004356000526004602052602060018060a01b0360406000205416604051908152f35b34610125576000366003190112610125576020906002548152f35b81601f820112156101255780359067ffffffffffffffff821161040d5760405192601f8301601f19908116603f0116840167ffffffffffffffff81118582101761040d576040528284526020838301011161012557816000926020809301838601378301015290565b60005b8381106106725750506000910152565b8181015183820152602001610662565b9060209161069b8151809281855285808601910161065f565b601f01601f1916010190565b6000546001600160a01b031633036106bb57565b63118cdaa760e01b6000523360045260246000fdfe60806040523461073a5761124c803803806100198161073f565b92833981019060c08183031261073a5780516001600160401b03811161073a5782610045918301610764565b60208201516001600160401b03811161073a5783610064918401610764565b604083015160608401519091906001600160401b03811161073a578561008b918601610764565b60808501519095906001600160401b03811161073a5760a0916100af918701610764565b9401516001600160a01b038116939084900361073a578051906001600160401b0382116104535760035490600182811c92168015610730575b60208310146104335781601f8493116106c0575b50602090601f83116001146106585760009261064d575b50508160011b916000199060031b1c1916176003555b8051906001600160401b0382116104535760045490600182811c92168015610643575b60208310146104335781601f8493116105d3575b50602090601f831160011461056b57600092610560575b50508160011b916000199060031b1c1916176004555b811561054a57600580546001600160a01b03198116841790915582906001600160a01b03167f8be0079c531659141344cd1fd0a4f28419497f9722a3daafe3b4186f6b6457e0600080a383516001600160401b03811161045357600654600181811c91168015610540575b602082101461043357601f81116104db575b50602094601f821160011461047457948192939495600092610469575b50508160011b916000199060031b1c1916176006555b82516001600160401b03811161045357600754600181811c91168015610449575b602082101461043357601f81116103ce575b506020601f8211600114610367578192939460009261035c575b50508160011b916000199060031b1c1916176007555b600880546001600160a01b0319168317905542600955670de0b6b3a76400008181029180159083049091141715610346576000600254828101809111610332576000927fddf252ad1be2c89b69c2b068fc378daa952ba7f163c4a11628f55a4df523b3ef926020926002555084845283825260408420818154019055604051908152a3604051610a7c90816107d08239f35b634e487b7160e01b82526011600452602482fd5b634e487b7160e01b600052601160045260246000fd5b01519050388061028a565b601f198216906007600052806000209160005b8181106103b65750958360019596971061039d575b505050811b016007556102a0565b015160001960f88460031b161c1916905538808061038f565b9192602060018192868b01518155019401920161037a565b60076000527fa66cc928b5edb82af9bd49922954155ab7b0942694bea4ce44661d9a8736c688601f830160051c81019160208410610429575b601f0160051c01905b81811061041d5750610270565b60008155600101610410565b9091508190610407565b634e487b7160e01b600052602260045260246000fd5b90607f169061025e565b634e487b7160e01b600052604160045260246000fd5b015190503880610227565b601f198216956006600052806000209160005b8881106104c3575083600195969798106104aa575b505050811b0160065561023d565b015160001960f88460031b161c1916905538808061049c565b91926020600181928685015181550194019201610487565b60066000527ff652222313e28459528d920b65115c16c04f3efc82aaedc97be59f3f377c0d3f601f830160051c81019160208410610536575b601f0160051c01905b81811061052a575061020a565b6000815560010161051d565b9091508190610514565b90607f16906101f8565b631e4fbdf760e01b600052600060045260246000fd5b015190503880610177565b600460009081528281209350601f198516905b8181106105bb57509084600195949392106105a2575b505050811b0160045561018d565b015160001960f88460031b161c19169055388080610594565b9293602060018192878601518155019501930161057e565b60046000529091507f8a35acfbc15ff81a39ae7d344fd709f28e8600b4aa8c65c6b64bfe7fe36bd19b601f840160051c81019160208510610639575b90601f859493920160051c01905b81811061062a5750610160565b6000815584935060010161061d565b909150819061060f565b91607f169161014c565b015190503880610113565b600360009081528281209350601f198516905b8181106106a8575090846001959493921061068f575b505050811b01600355610129565b015160001960f88460031b161c19169055388080610681565b9293602060018192878601518155019501930161066b565b60036000529091507fc2575a0e9e593c00f959f8c92f12db2869c3395a3b0502d05e2516446f71f85b601f840160051c81019160208510610726575b90601f859493920160051c01905b81811061071757506100fc565b6000815584935060010161070a565b90915081906106fc565b91607f16916100e8565b600080fd5b6040519190601f01601f191682016001600160401b0381118382101761045357604052565b81601f8201121561073a578051906001600160401b03821161045357610793601f8301601f191660200161073f565b928284526020838301011161073a5760005b8281106107ba57505060206000918301015290565b806020809284010151828287010152016107a556fe608080604052600436101561001357600080fd5b60003560e01c90816302d05d3f146107345750806306fdde0314610655578063095ea7b3146105cf57806318160ddd146105b157806323b872dd146104c4578063313ce567146104a857806336ebffca1461048c57806355c3c74814610423578063646c2e33146103f357806370a08231146103b9578063715018a61461035c5780638da5cb5b1461033357806395d89b4114610209578063a9059cbb146101d8578063d8270dce146101ba578063dd62ed3e146101695763f2fde38b146100da57600080fd5b34610164576020366003190112610164576100f3610799565b6100fb610a1d565b6001600160a01b0316801561014e57600580546001600160a01b0319811683179091556001600160a01b03167f8be0079c531659141344cd1fd0a4f28419497f9722a3daafe3b4186f6b6457e0600080a3005b631e4fbdf760e01b600052600060045260246000fd5b600080fd5b3461016457604036600319011261016457610182610799565b61018a6107af565b6001600160a01b039182166000908152600160209081526040808320949093168252928352819020549051908152f35b34610164576000366003190112610164576020600954604051908152f35b34610164576040366003190112610164576101fe6101f4610799565b6024359033610958565b602060405160018152f35b346101645760003660031901126101645760405160006004548060011c90600181168015610329575b602083108114610315578285529081156102f957506001146102a2575b50819003601f01601f191681019067ffffffffffffffff82118183101761028c5760408290526020808352829161028891830190610758565b0390f35b634e487b7160e01b600052604160045260246000fd5b600460009081529091507f8a35acfbc15ff81a39ae7d344fd709f28e8600b4aa8c65c6b64bfe7fe36bd19b5b8282106102e35750602091508201018261024f565b60018160209254838588010152019101906102ce565b90506020925060ff191682840152151560051b8201018261024f565b634e487b7160e01b84526022600452602484fd5b91607f1691610232565b34610164576000366003190112610164576005546040516001600160a01b039091168152602090f35b3461016457600036600319011261016457610375610a1d565b600580546001600160a01b031981169091556000906001600160a01b03167f8be0079c531659141344cd1fd0a4f28419497f9722a3daafe3b4186f6b6457e08280a3005b34610164576020366003190112610164576001600160a01b036103da610799565b1660005260006020526020604060002054604051908152f35b346101645760003660031901126101645761028861040f61089d565b604051918291602083526020830190610758565b346101645760003660031901126101645760085460095461046f916001600160a01b031661044f6107c5565b9161047d61045b61089d565b604051958695608087526080870190610758565b908582036020870152610758565b91604084015260608301520390f35b346101645760003660031901126101645761028861040f6107c5565b3461016457600036600319011261016457602060405160128152f35b34610164576060366003190112610164576104dd610799565b6104e56107af565b6001600160a01b0382166000818152600160209081526040808320338452909152902054909260443592916000198110610525575b506101fe9350610958565b83811061059457841561057e573315610568576101fe946000526001602052604060002060018060a01b033316600052602052836040600020910390558461051a565b634a1406b160e11b600052600060045260246000fd5b63e602df0560e01b600052600060045260246000fd5b8390637dc7a0d960e11b6000523360045260245260445260646000fd5b34610164576000366003190112610164576020600254604051908152f35b34610164576040366003190112610164576105e8610799565b60243590331561057e576001600160a01b031690811561056857336000526001602052604060002082600052602052806040600020556040519081527f8c5be1e5ebec7d5bd14f71427d1e84f3dd0314c0f7b2291e5b200ac8c7c3b92560203392a3602060405160018152f35b346101645760003660031901126101645760405160006003548060011c9060018116801561072a575b602083108114610315578285529081156102f957506001146106d35750819003601f01601f191681019067ffffffffffffffff82118183101761028c5760408290526020808352829161028891830190610758565b600360009081529091507fc2575a0e9e593c00f959f8c92f12db2869c3395a3b0502d05e2516446f71f85b5b8282106107145750602091508201018261024f565b60018160209254838588010152019101906106ff565b91607f169161067e565b34610164576000366003190112610164576008546001600160a01b03168152602090f35b919082519283825260005b848110610784575050826000602080949584010152601f8019910116010190565b80602080928401015182828601015201610763565b600435906001600160a01b038216820361016457565b602435906001600160a01b038216820361016457565b6040519060006006548060011c90600181168015610893575b602083108114610315578286529081156108775750600114610820575b50829003601f01601f1916820167ffffffffffffffff81118382101761028c57604052565b600660009081529091507ff652222313e28459528d920b65115c16c04f3efc82aaedc97be59f3f377c0d3f5b828210610861575060209150830101386107fb565b600181602092548385890101520191019061084c565b90506020925060ff191682850152151560051b830101386107fb565b91607f16916107de565b6040519060006007548060011c9060018116801561094e575b6020831081146103155782865290811561087757506001146108f75750829003601f01601f1916820167ffffffffffffffff81118382101761028c57604052565b600760009081529091507fa66cc928b5edb82af9bd49922954155ab7b0942694bea4ce44661d9a8736c6885b828210610938575060209150830101386107fb565b6001816020925483858901015201910190610923565b91607f16916108b6565b6001600160a01b0316908115610a07576001600160a01b03169182156109f15760008281528060205260408120548281106109d75791604082827fddf252ad1be2c89b69c2b068fc378daa952ba7f163c4a11628f55a4df523b3ef958760209652828652038282205586815280845220818154019055604051908152a3565b916064928463391434e360e21b8452600452602452604452fd5b63ec442f0560e01b600052600060045260246000fd5b634b637e8f60e11b600052600060045260246000fd5b6005546001600160a01b03163303610a3157565b63118cdaa760e01b6000523360045260246000fdfea264697066735822122058870f3bc34f7b2cfd8f90a476d181678c32b8d52a68bf875fe5252193920b5d64736f6c634300081c0033a264697066735822122051ef50517eac65815946d1a5e3a386bd05443312accd9dff1441bd22d131bbef64736f6c634300081c0033",
  "linkReferences": {},
  "deployedLinkReferences": {}
}